:100000000C9405030C944D090C9426090C94FF08DC
:100010000C94D8080C942D030C942D030C94B10867
:100020000C942D030C942D030C94E7030C94C7053A
:100030000C942D030C942D030C942D030C942D0380
:100040000C942D030C942D030C942D030C942D0370
:100050000C942D030C942D030C942D030C94670821
:100060000C942D030C942D030C942D030C942D0350
:100070000C942D030C942D030C942D030C942D0340
:100080000C942D030C942D030C942D030C942D0330
:100090000C942D030C942D030C942D030C942D0320
:1000A0000C942D030C942D030C942D03FF198D1A21
:1000B0004A1BF61B1E1C541CD51C781DBF03C20313
:1000C000B103B503BB03E303E303E303C603CA03BE
:1000D000CE03D403D803E303DE030B0D1F0D330D52
:1000E000480D5D0D720D7C0D800D840D9A0DB00DC7
:1000F000C60DDC0DF20D080E1E0E340E400E4C0E19
:100100009D10580E640E6C0E740E7C0E840E8C0EB8
:10011000F90E260F330F400F440F590F6E0F830F48
:10012000980FAD0FC20FCA0FD40FD80FFA0FFE0FE2
:1001300002105F10631066106A1070107310751053
:1001400077107B107F10831087108D108F10911007
:10015000931005A84CCDB2D44EB93836A9020C5034
:10016000B9918688083CA6AAAA2ABE000000803F52
:10017000070605040100080A0B0C0D090000000029
:10018000240027002A002D00300000000000250078
:1001900028002B002E0031000000000200090F0093
:1001A00000030401000C000000000000000000003B
:1001B000000000000000000403090412010002EF27
:1001C00002014013008419000101020301454D435F
:1001D0002044657600454D430005010904A10185D1
:1001E00003050919012920150025017501952081B4
:1001F000020501A1000930093116008026FF7F7534
:100200001095028102093309340932093515002697
:10021000FF03350046FF03751095048102C00501F8
:1002200009399501750415002507463B01651481C0
:100230004275049501810155006500050F0921A152
:100240000285010922150125093501450975089521
:100250000191020925A10209260931094009410934
:100260004309420930093215012508350145087551
:100270000895019100C009501500263175350046DA
:10028000983A66031055FD751095019102095409BD
:100290005126FF0046FF7F750895029102550066C2
:1002A000000009521500261027350046102775104A
:1002B0009501910209531501250835014508750876
:1002C000950191020955A1020501A100093015000F
:1002D0002501750195019102C0C0050F09569501D0
:1002E0009102950691030957A1020B01000A000B28
:1002F00002000A00651455FE150026FF0035004770
:10030000A08C0000650075089502910255006500FB
:10031000C0C0095AA102850209221501250935012B
:100320004509750895019102095B095D26FF0046A4
:100330001027750895029102095C095E6603105545
:10034000FD7508910265005500C0095FA102850393
:100350000922150125093501450975089501910204
:10036000096036018046FF7F16018026FF7F7510E9
:1003700091020961096236F0D846102716F0D82696
:100380001027950291020963096435001500910256
:10039000096595019102C0096EA102850409221523
:1003A0000125093501450975089501910209712654
:1003B000FF00461027750895019102097026102745
:1003C000751095019102096F16F0D836F0D87510A6
:1003D0009501910209721500350027FFFF000047C3
:1003E000FFFF000055FB6603107510950191026533
:1003F000005500C00973A1028505092215012509D0
:1004000035014509750895019102097016F0D82645
:10041000102736F0D846102775109102C00977A131
:1004200002850A0922150125093501450975089536
:100430000191020978A1020979097A097B15012540
:10044000039100C0097C150026FF0046FF009102C1
:10045000C0097FA10285010980150026FF00350033
:1004600046FF0075089501B10209A8A102092109FA
:100470005A095F096E097375089505B102C0250117
:1004800075079501B10309A97501B102C00992A1CF
:1004900002850209221501250935014509750895CE
:1004A000018102099409A009A409A6250145017545
:1004B00001950481028103C00996A102850B099769
:1004C00009980999099A099B099C1500250175014C
:1004D0009506910295029103C009ABA102854409DA
:1004E00025A10209260931094009410943094209A8
:1004F000300932150125083501450875089501B107
:1005000000C00501093B150026FF00350046FF002D
:1005100075089501B102C0050F0990A10285450932
:10052000221501250935014509750895019102C07B
:100530000989A102853309221501250935014509DB
:1005400075089501B102098BA102098C098D098EEC
:10055000150125033501450375089501B100C00952
:10056000AC150026FF00350046FF0075089501B167
:1005700002C0097DA1028540097E2610274610276A
:10058000751095019102C00600FF0901A102150036
:1005900026FF007508858095080901B102090181CF
:1005A000028586950309018102859095010901B1B3
:1005B0000285EE95080901B102C0C00408020110CD
:1005C000408040102040804080080204018040208C
:1005D0001002011080102040402000000000230085
:1005E000260029002C002F00040404040403040541
:1005F00002020202040302020202060606060606C0
:100600000404020202040400452211241FBECFEF9D
:10061000DAE0DEBFCDBF11E0A0E0B1E0E2E5FEE44C
:1006200002C005900D92AA35B107D9F725E0AAE5D9
:10063000B1E001C01D92AD30B207E1F713E0C5E0B3
:10064000D3E004C02197FE010E941C27C430D107CB
:10065000C9F70E94A5140C9427270C940000409120
:10066000F1025091F2022091EF023091F002421714
:100670005307B4F49091E8009570E1F39091E8008D
:1006800092FD19C08093F1008091F1029091F202E5
:1006900001968F739927892B19F48EEF8093E800C8
:1006A0008091F1029091F20201969093F202809370
:1006B000F10281E0089580E00895CF92DF92EF92F9
:1006C000FF920F931F93CF93DF931F92CDB7DEB7A7
:1006D000182F062FE42E862F880F8E5F99830E9495
:1006E0002F0383E00E942F03F12EC12E9981D92E72
:1006F0008C2D8F19801798F4F601E7FE02C08491C3
:1007000001C080810E942F03182F80E00E942F03D8
:100710008123FFEFCF1ADF0A8111EACF01C081E008
:100720000F90DF91CF911F910F91FF90EF90DF908D
:10073000CF900895615030F02091F100FC012083AA
:100740000196F8CF289884E68093F302089590E00C
:10075000FC013197EF30F105B0F5E25AFF4F0C94F0
:100760001C27809180008F7703C0809180008F7D4F
:1007700080938000089580918000877FF9CF84B5B1
:100780008F7702C084B58F7D84BD089580919000DD
:100790008F7707C0809190008F7D03C0809190007B
:1007A000877F8093900008958091C0008F7703C069
:1007B0008091C0008F7D8093C00008958091C20019
:1007C000877F8093C200089508950E9422271F9278
:1007D0000F920FB60F9211248F939F938091E10097
:1007E0009091E100937F9093E10083FF0FC01092FE
:1007F000E90091E09093EB001092EC0092E390936B
:10080000ED0010925C0198E09093F00082FF20C010
:1008100093E09093E9009091F200992319F09AE304
:100820009093E8009091F402992339F09091F402AA
:1008300091509093F402992389F19091F3029923B6
:1008400039F09091F30291509093F302992341F182
:1008500084FF10C08091E2008E7E81608093E20070
:100860008091E1008F7E8093E10080915A018E7E1D
:10087000806111C080FF16C08091E2008E7E806191
:100880008093E2008091E1008E7E8093E100809170
:100890005A018E7E816080935A0104C05D9ACDCF4B
:1008A000289AD6CF9F918F910F900FBE0F901F90D7
:1008B0001895BF92CF92DF92EF92FF920F931F9302
:1008C000CF93DF936C018B01EB019BEFB92E209747
:1008D000C1F07E01C134D1051CF080E4E82EF12C7A
:1008E0008091E80082FFFCCFC8018C1B9D0B6E2D10
:1008F0008C0D9D1D0E949A03B092E800CE19DF096D
:10090000E6CFC801DF91CF911F910F91FF90EF903B
:10091000DF90CF90BF900895DF92EF92FF920F93F8
:100920001F93CF93DF93D82E8A017B01E40EF51E2F
:10093000EB01CE15DF0571F0D7FE03C0FE018491F7
:1009400001C088810E942F0321968111F2CF8FEF81
:100950009FEF01C0C801DF91CF911F910F91FF90D0
:10096000EF90DF9008952FB7F89487708093E90097
:100970009091E800892F807295FF04C09091F20059
:1009800080E4891B2FBF08957F928F929F92AF9230
:10099000BF92CF92DF92EF92FF920F931F93CF936C
:1009A000DF93C82E8B017A0180915C01811103C015
:1009B0008FEF9FEF71C080915A0180FF05C0809139
:1009C000E00082608093E000CE2DDF2DD12C8AEFF5
:1009D000882E8C2D8770B82E8C2D8072A82E8C2D91
:1009E0008074982E9AE3792E209709F44EC08C2DAE
:1009F0000E94B304282F811106C08A948820C1F276
:100A00000E948B14F1CF90E0C817D9070CF42C2F5B
:100A10003FB7F894B092E9008091E80085FF33C0B9
:100A2000822F90E0C81BD90BAA2029F02150A8F0F2
:100A30001092F100FBCFF801C7FE07C0215058F01B
:100A400044914093F1003196F9CF215020F041912B
:100A50004093F100FACF080F191FDD2019F07092B2
:100A6000E8000AC08091E80085FD08C07092E800A7
:100A7000DD24D394209739F0D12C05C0209719F4A8
:100A800091107092E8003FBFAFCFD110B0CF5D980A
:100A900084E68093F402C701DF91CF911F910F91FB
:100AA000FF90EF90DF90CF90BF90AF909F908F908E
:100AB0007F90089590915C01992311F057FF03C036
:100AC0008FEF9FEF08952FB7F89487708093E90018
:100AD0008091F20090E0841795070CF4AC01842F0C
:100AE000FB0194E6815038F028989093F3023091FE
:100AF000F1003193F7CF4115510521F08091F200BB
:100B0000882319F02FBFCA0108958BE68093E8006F
:100B1000F9CF8091E70281110DC082E08093E3025A
:100B200084E08093E4021092E6021092E50281E0F4
:100B30008093E70283EE92E008950F931F93CF9383
:100B4000DF931F92CDB7DEB719820E948905DC01C1
:100B500012960D911C9113970115110569F0D8019A
:100B6000ED91FC910280F381E02DBE016F5F7F4F1C
:100B7000C801099597FF07C089810F90DF91CF9138
:100B80001F910F910895F80100851185E5CF1F92FF
:100B90000F920FB60F921124CF92DF92EF92FF9235
:100BA0000F931F932F933F934F935F936F937F9375
:100BB0008F939F93AF93BF93EF93FF93CF93DF9365
:100BC000CDB7DEB76C97DEBFCDBF1092E900809144
:100BD000E80083FF61C168E0CE0145960E949A0358
:100BE00082EF8093E8008D8987FF05C09091E8002F
:100BF00090FFFCCF03C09EEF9093E800982F907673
:100C000009F0C6C09E892F89188D91110CC08038BB
:100C100029F480915B018093F10002C01092F100F1
:100C20001092F100EFC0422F50E0512B913051F45F
:100C30008111E8C04130510509F0E4C080915B01A9
:100C40008D7F0BC0933061F48111DCC041305105C0
:100C500009F0D8C080915B01826080935B01D2C0B3
:100C6000953041F48091E80080FFFCCF206820930C
:100C7000E300C8C0963009F05FC0EB8CFC8C10928A
:100C8000E9001092F2021092F102123091F51092E6
:100C9000F0021092EF020E949D0599E0BE016F5F85
:100CA0007F4FDB01E92F1D92EA95E9F799831A83BB
:100CB00091E09E8390EA98879AEF99872091F102BC
:100CC0003091F202275F3F4F3C832B838D8310923C
:100CD000E9001092F2021092F102F092F002E0921A
:100CE000EF0249E050E080E00E948C040E949D05E4
:100CF00089C0F092F002E092EF020E948905DC01C7
:100D00001296ED90FC901397E114F10409F467C07A
:100D1000D701ED91FC910480F581E02DBE016B5E61
:100D20007F4FC7010995009719F00CF06BC06EC09A
:100D3000F701E084F184E8CF973009F467C0983078
:100D400021F481E08093F1005DC0993009F05AC030
:100D5000837009F05BC0E2E0F1E081E021E036E37E
:100D60009081992361F08093E9002093EB009191A9
:100D70009093EC003093ED008F5F873089F78EE71A
:100D80008093EA001092EA008F8980935C013AC058
:100D90008B8D9C8D1092E9001092F2021092F1025C
:100DA0009093F0028093EF020E948905DC01129675
:100DB0000D911C9113970115110541F1D801ED9189
:100DC000FC910190F081E02DBE016B5E7F4FC80168
:100DD0000995811117C0F80100851185ECCF1130FC
:100DE00009F44EC0133091F48F89882309F445C06B
:100DF000823081F440E863E085ED91E00E945D037C
:100E0000882321F08EEF8093E80046C081E2809332
:100E1000EB0042C0813029F440E867E08DEC91E0BE
:100E2000EDCF833099F70E948905DC011296ED9091
:100E3000FC9013978E010F5F1F4F6801E114F104BE
:100E400079F0D701ED91FC910680F781E02DB80192
:100E5000C7010995080F111DF701E084F184EECF59
:100E6000D8011C92F60101900020E9F73197BF01EB
:100E70006C197D0940E0C601C1CF67EB71E002C08B
:100E80006BEB71E06115710509F2FB01449150E0D3
:100E900080E80E948C04B6CF6C960FB6F894DEBF43
:100EA0000FBECDBFDF91CF91FF91EF91BF91AF9179
:100EB0009F918F917F916F915F914F913F912F9172
:100EC0001F910F91FF90EF90DF90CF900F900FBE8A
:100ED0000F901F901895CF93DF93282F30E0F901E2
:100EE000E856FE4F8491F901E554FA4FD491F90187
:100EF000E851FA4FC491CC2391F081110E94A703CD
:100F0000EC2FF0E0EE0FFF1FE652FA4FA591B491DF
:100F1000EC91ED2381E090E021F480E002C080E0DC
:100F200090E0DF91CF910895862F0C946B071F936B
:100F3000CF93DF93282F30E0F901E856FE4F8491DC
:100F4000F901E554FA4FD491F901E851FA4FC491EF
:100F5000CC23C9F0162F81110E94A703EC2FF0E0DB
:100F6000EE0FFF1FE657FE4FA591B4918FB7F8948F
:100F7000111105C09C91ED2FE095E92302C0EC9181
:100F8000ED2BEC938FBFDF91CF911F910895862FAA
:100F9000642F0C949707CF93DF9390E0FC01E55406
:100FA000FA4F2491FC01E851FA4F8491882361F1B2
:100FB00090E0880F991FFC01E458FE4FC591D49131
:100FC000FC01E657FE4FA591B491611109C09FB78E
:100FD000F8948881209582238883EC912E230BC07E
:100FE000623061F49FB7F8943881822F8095832313
:100FF0008883EC912E2B2C939FBF06C08FB7F8945B
:10100000E8812E2B28838FBFDF91CF910895862F03
:10101000642F0C94CB07823108F08251E82FF0E066
:10102000E059FE4FE49180917B00E3FB222720F9F9
:1010300030E095E0220F331F9A95E1F78F7D282B42
:1010400020937B00E770E064E0937C0080917A005D
:10105000806480937A0080917A0086FDFCCF809135
:1010600078002091790090E0922B08953FB7F89492
:101070008091DF029091E002A091E102B091E20242
:1010800026B5A89B05C02F3F19F00196A11DB11DE3
:101090003FBFBA2FA92F982F8827820F911DA11D1E
:1010A000B11DBC01CD0142E0660F771F881F991F5B
:1010B0004A95D1F708952FB7F8946091DB027091AB
:1010C000DC028091DD029091DE022FBF08951F9215
:1010D0000F920FB60F9211242F933F938F939F93EC
:1010E000AF93BF938091DB029091DC02A091DD026F
:1010F000B091DE023091DA0223E0230F2D3720F485
:101100000196A11DB11D05C026E8230F0296A11D61
:10111000B11D2093DA028093DB029093DC02A0934E
:10112000DD02B093DE028091DF029091E002A09197
:10113000E102B091E2020196A11DB11D8093DF0290
:101140009093E002A093E102B093E202BF91AF91CD
:101150009F918F913F912F910F900FBE0F901F90F5
:1011600018951F920F920FB60F9211242F933F9351
:101170004F935F936F937F938F939F93AF93BF939F
:10118000EF93FF93E0911001F09111010995FF9108
:10119000EF91BF91AF919F918F917F916F915F91EF
:1011A0004F913F912F910F900FBE0F901F90189568
:1011B0001F920F920FB60F9211242F933F934F93CC
:1011C0005F936F937F938F939F93AF93BF93EF93AF
:1011D000FF93E0910E01F0910F010995FF91EF91BE
:1011E000BF91AF919F918F917F916F915F914F913F
:1011F0003F912F910F900FBE0F901F9018951F9247
:101200000F920FB60F9211242F933F934F935F933A
:101210006F937F938F939F93AF93BF93EF93FF93BE
:10122000E0910C01F0910D010995FF91EF91BF91B3
:10123000AF919F918F917F916F915F914F913F916E
:101240002F910F900FBE0F901F9018951F920F9225
:101250000FB60F9211242F933F934F935F936F9389
:101260007F938F939F93AF93BF93EF93FF93E091FF
:101270000A01F0910B010995FF91EF91BF91AF9198
:101280009F918F917F916F915F914F913F912F919E
:101290000F900FBE0F901F9018951F920F920FB6D0
:1012A0000F9211242F933F934F935F936F937F93EC
:1012B0008F939F93AF93BF93EF93FF93E0910801B8
:1012C000F09109010995FF91EF91BF91AF919F9125
:1012D0008F917F916F915F914F913F912F910F90DF
:1012E0000FBE0F901F9018952F923F924F925F92D2
:1012F0006F927F928F929F92AF92BF92CF92DF9226
:10130000EF92FF920F931F93CF93DF9300D01F9222
:10131000CDB7DEB79B838A83FC0180810E940B08D6
:101320008C01EA81FB81258C368C30A2278EF085DA
:10133000F983FF2309F452C0EA81FB818585882364
:1013400009F44CC0B801012E000C880B990B0E94C7
:1013500042252B013C01EA81FB81C184D284E384D4
:10136000F484A70196010E94932487FF0EC0B80160
:10137000660F771F072E000C880B990B0E944225E1
:10138000A70196010E94262426C0EA81FB81A28043
:10139000B380B5010B2C000C880B990B0E944225E1
:1013A000A70196010E9426249B01AC01C301B20152
:1013B0000E94F225181694F4B801660F771F6A1977
:1013C0007B09072E000C880B990B0E944225A70170
:1013D00096010E9427240E940A258B01EA81FB8145
:1013E0004684578460887188B801110F880B990B67
:1013F0000E944225A30192010E9426246B017C01D8
:1014000020E030E0A9010E94F22518161CF4C70163
:10141000B60103C0C701B60190580E9411258B0187
:10142000EA81FB8186889788A08CB18CA501940104
:10143000C701B6010E9426242DEC3CEC4CEC5EE387
:101440000E94F7259B01AC01C501B4010E9427242D
:101450004B015C01EA81FB81668B778B808F918FDA
:10146000F981FF2301F120E030E0A9010E94F2257B
:10147000181624F0B7FAB094B7F8B094EA81FB815B
:101480002185328543855485C501B4010E9493248A
:10149000881F8827881FEA81FB81828F882319F0A3
:1014A000C301B20176C0B80180E090E00E944025FF
:1014B000EA81FB8124813581468157810E94F7258D
:1014C00020E030E040E85FE30E9427249B01AC016C
:1014D00060E070E080E89FE30E9498249B01AC01EB
:1014E00060E070E080E89FE30E9426249B01AC014D
:1014F0000E9427245B018C0120E030E040E85FE39C
:101500000E94F225181624F4A12CB12C00E81FE348
:101510009501A801C701B6010E94F7259B01AC0106
:10152000C301B2010E9427246B017C01EA81FB8187
:1015300066877787808B918B20E030E0A9010E943D
:101540009324EA81FB8187FF05C016861786108ADF
:10155000118A19C0828193810197BC01990F880B70
:10156000990B0E9442254B015C019B01AC01C70114
:10157000B6010E94F225181634F4EA81FB818686B2
:101580009786A08AB18AEA81FB8166857785808902
:1015900091890E940A25EA81FB81768F658F81E01F
:1015A0006215730509F480E0EA81FB8181A30F9045
:1015B0000F900F90DF91CF911F910F91FF90EF90BF
:1015C000DF90CF90BF90AF909F908F907F906F9063
:1015D0005F904F903F902F9008958F929F92BF926F
:1015E000CF92DF92EF92FF920F931F93CF93DF93EF
:1015F00000D0CDB7DEB74C01B62E6801790180E08E
:1016000094E0F4019383828380E090E0A0E8B0E46A
:1016100081879287A387B48781E08587168A178A96
:10162000108E118E128E60E08B2D49837A830E947A
:10163000CB0760E08B2D0E949707F401B0827A817E
:1016400071834981408720E030E040E85FE3C701D3
:10165000B6010E94F22518166CF020E030E0A901D6
:10166000C701B6010E94932487FF0AC0C12CD12C68
:10167000760106C0C12CD12C80E8E82E8FE3F82E2D
:10168000F401C482D582E682F7820F900F90DF9139
:10169000CF911F910F91FF90EF90DF90CF90BF906F
:1016A0009F908F9008950F931F93CF93DF931F9276
:1016B000CDB7DEB78C0169830E94AD2369816817BD
:1016C00041F0C8010F90DF91CF911F910F910C94C1
:1016D000B5230F90DF91CF911F910F9108950C9436
:1016E000AD23DC01FB0188E4808389E4818384E409
:1016F000828353969C9153979F709F5B93835396DD
:101700008D919C91549724E0969587952A95E1F7C1
:101710008F708F5B848385E00895FC0182818F5BED
:10172000FB01808381E00895EF92FF920F931F9356
:10173000CF93DF93FB012081213851F523812232A1
:1017400039F5DC0112962C9130E044815581421725
:101750005307F1F4EC0109891A89E12CF12C0115E8
:10176000110591F0F801448155816281738180E80F
:101770000E948C048F3FFFEF9F0769F0E80EF91E6F
:10178000D8010D911C91EBCF81E08D8BC70105C075
:1017900080E090E002C08FEF9FEFDF91CF911F912B
:1017A0000F91FF90EF900895CF93DF93CDB7DEB701
:1017B000A0970FB6F894DEBF0FBECDBFFC01DB01D2
:1017C0008C918F5F8C93BE016F5F7F4F80E2DB0156
:1017D0001D928A95E9F799E0998384E08A8382E0F3
:1017E0008D8383E08E839A8791E29B8791E09C872B
:1017F0009D879F8722E2288B57E05B8B45E04C8BCF
:101800008E8B20E430E0388F2F8B998F5A8F4B8F3F
:101810008D8F3F8F2E8F98A382818B8393898489AC
:10182000998B8A8B8381982F90689D8B8F5F8C8F8B
:1018300040E250E080E00E948C04A0960FB6F8943D
:10184000DEBF0FBECDBFDF91CF9108950F931F93E1
:10185000CF93DF93CDB7DEB72A970FB6F894DEBFEC
:101860000FBECDBFFC01228130E0FB0144815581D8
:101870002417350709F063C4DC0191818081813A26
:10188000A9F5913059F58281813091F489838FEFE8
:101890008A838DE08B8386E08C838EE08D8388E065
:1018A0008E8384E08F8380E8888748E050E012C010
:1018B000833341F444E050E064E173E080E40E944B
:1018C0008C043BC4803809F038C489838DE58A8351
:1018D00049E050E0BE016F5F7F4FF0CF81E0933071
:1018E00009F42EC4923009F02AC42AC4813209F0C6
:1018F00026C49B3021F4828155968C931EC49A3065
:1019000021F4828156968C9318C4993009F017C43B
:101910008381833009F013C48281843409F05EC06E
:1019200064E070E0CE0101960E9459048FEC97E0CC
:101930000197F1F700C0000083E3809314038091C6
:1019400000018A3021F1E091000181E08E0F809347
:10195000000195E1A09100019A9FD0011124A35AA2
:10196000BE4F8C91882351F0809100018A3030F471
:10197000809100018F5F80930001ECCF95E1E99F9A
:10198000D0011124A35ABE4F81E08C9301C0E0E046
:10199000E0931503E11104C082E0809316031AC09E
:1019A00081E0809316038A8125E1E29FF0011124F2
:1019B000E35AFE4F81838FEF9FE7938382831586DF
:1019C000148680E197E2918B808B148A84E690E004
:1019D000938B828B8FEF80931703AFC369E070E026
:1019E000CE0101960E9459048981803909F4F5C21B
:1019F0008E3E21F0803809F0A0C399C3EA818E2F72
:101A000090E0FC013197E932F10508F096C3E35903
:101A1000FF4F0C941C276B81862F90E0982F88270E
:101A20002C81820F911D909349028093480280E09F
:101A300090E00E94530B6C8181E090E0D7C18B81D4
:101A400090E0982F88272C81820F911D092E000C81
:101A5000AA0BBB0B8093440290934502A0934602CD
:101A6000B09347026AC36D8170E080E090E00E940D
:101A7000402520E030E048EC52E40E949824609336
:101A8000740270937502809376029093770255C327
:101A90006D8170E080E090E00E94402520E030E021
:101AA00048EC52E40E949824609378027093790283
:101AB00080937A0290937B0240C36D8170E080E056
:101AC00090E00E94402520E030E048EC52E40E9483
:101AD000982460937C0270937D0280937E029093A1
:101AE0007F022BC38D81EAE08E9FC0011124909369
:101AF00081028093800221C380914A028160EDC2FD
:101B000080914A028E7FE9C282E10E940B08909385
:101B10004E0280934D0282E10E940B08692F82E001
:101B200090E00E94530B82E10E940B08682F83E033
:101B300090E05CC182E10E940B0890935002809378
:101B40004F0282E10E940B08692F84E090E00E941E
:101B5000530B82E10E940B08682F85E090E046C19C
:101B600083E10E940B08909352028093510283E11B
:101B70000E940B08692F86E090E00E94530B83E1DE
:101B80000E940B08682F87E090E030C183E10E943B
:101B90000B08909354028093530283E10E940B0838
:101BA000692F88E090E00E94530B83E10E940B08AC
:101BB000682F89E090E01AC184E10E940B0890939D
:101BC00056028093550284E10E940B08692F8AE037
:101BD00090E00E94530B84E10E940B08682F8BE079
:101BE00090E004C184E10E940B0890935802809316
:101BF000570284E10E940B08692F8CE090E00E945C
:101C0000530B84E10E940B08682F8DE090E0EEC03A
:101C100085E10E940B0890935A028093590285E156
:101C20000E940B08692F8EE090E00E94530B85E123
:101C30000E940B08682F8FE090E0D8C085E10E94D9
:101C40000B0890935C0280935B0285E10E940B0875
:101C5000692F80E190E00E94530B85E10E940B0800
:101C6000682F81E190E0C2C08E8190E0982F882794
:101C70002F81820F911D90936602809365025DC251
:101C80008E8190E0982F88272F81820F911D90934D
:101C900068028093670251C28E8190E0982F882756
:101CA0002F81820F911D90936A028093690245C231
:101CB0008E8190E0982F88272F81820F911D90931D
:101CC0006C0280936B0239C28E8190E0982F882736
:101CD0002F81820F911DB5C087E10E940B08909360
:101CE00062028093610229C287E10E940B089093EF
:101CF00064028093630221C286E10E940B089093E4
:101D00005E0280935D0219C286E10E940B089093E7
:101D1000600280935F0211C26091660282E190E0EE
:101D20000E94530B6091650283E190E00E94530B87
:101D30006091680284E190E00E94530B6091670219
:101D400085E190E00E94530B60916A0286E190E089
:101D50000E94530B6091690287E190E00E94530B4F
:101D600060916C028AE190E00E94530B60916B02DB
:101D70008BE190E00E94530B60916E028CE190E049
:101D80000E94530B60916D028DE190E00E94530B15
:101D9000609162028EE190E00E94530B60916102BB
:101DA0008FE190E00E94530B6091640280E290E02A
:101DB0000E94530B6091630281E290E00E94530BFA
:101DC00060915E0282E290E00E94530B60915D029E
:101DD00083E290E00E94530B6091600284E290E005
:101DE0000E94530B60915F0285E290E00E94530BCA
:101DF000A4C180E094E090935E0280935D02109213
:101E0000600210925F0290936202809361021092CE
:101E100064021092630220E033E030936602209364
:101E2000650280E091E0909368028093670240E051
:101E300052E050936A024093690230936C022093FF
:101E40006B0290936E0280936D0277C180914A027B
:101E500081FD03C0826080934A0280914A0282FF22
:101E60006CC18B7F3AC180914A0281FD03C08260C0
:101E700080934A0280914A0282FD5FC184602DC135
:101E800080914A028D7F29C16D8170E080E090E0F1
:101E90000E94402520E030E04AE754E40E94982464
:101EA00060938202709383028093840290938502F0
:101EB00044C16D8170E080E090E00E94402520E008
:101EC00030E048EC52E40E949824609386027093BC
:101ED000870280938802909389022FC16D8170E000
:101EE00080E090E00E94402520E030E048EC52E4A1
:101EF0000E94982460938A0270938B0280938C02D4
:101F000090938D021AC16E8170E080E090E00E9493
:101F1000402520E030E048EC52E40E949824609391
:101F20008E0270938F02809390029093910205C16C
:101F30006E8170E080E090E00E94402520E030E07B
:101F400048EC52E40E9498246093920270939302AA
:101F50008093940290939502F0C06E8170E080E0CF
:101F600090E00E94402520E030E048EC52E40E94DE
:101F700098246093960270939702809398029093AE
:101F80009902DBC08F81982F990F990F890F809349
:101F90007102D3C08F81F5E08F9FC001112490930F
:101FA000730280937202C9C0888580939E02C5C067
:101FB0006E8170E080E090E00E94402520E030E0FB
:101FC00048EC52E40E94982460939A0270939B021A
:101FD00080939C0290939D02B0C0EA818E2F90E086
:101FE000FC013297E331F10508F0A7C0EA56FF4F34
:101FF0000C941C2780914A0288606FC080914A022D
:10200000877F6BC000E010E060E0C8010E94B5234C
:102010000F5F1F4F011524E01207B1F710935E0206
:1020200000935D021092600210925F0210936202B0
:1020300000936102109264021092630220E033E088
:10204000309366022093650280E091E090936802ED
:102050008093670240E052E050936A024093690225
:1020600030936C0220936B0290936E0280936D020A
:10207000109249021092480210924E0210924D02A4
:102080008FEF93E09093500280934F021092520290
:102090001092510290935402809353021092560270
:1020A00010925502909358028093570210925A0250
:1020B0001092590290935C0280935B023EC081E0D3
:1020C00080934C023AC010924C0237C080914A0271
:1020D000806103C080914A028F7E80934A022DC0A6
:1020E00010929F022AC083E003C084E001C085E013
:1020F00080939F0222C080914B0281600BC080912F
:102100004B028E7F07C080914B02826003C080919A
:102110004B028D7F80934B0210C081E005C082E0AE
:1021200003C083E001C084E08093700206C08A810E
:10213000813019F48B8180936F0281E001C080E0CF
:102140002A960FB6F894DEBF0FBECDBFDF91CF91B8
:102150001F910F910895AF92BF92CF92DF92EF92AD
:10216000FF920F931F93CF93DF931F92CDB7DEB7EC
:102170007C0169836A01590141E050E0BE016F5F53
:102180007F4FFC0183810E94C4048C0197FD0BC02A
:10219000F7018381A501B60180640E94C40497FD04
:1021A00002C0800F911F0F90DF91CF911F910F916F
:1021B000FF90EF90DF90CF90BF90AF900895809107
:1021C0000C0381116FC082E08093F90281E080935B
:1021D000FA0224E033E03093FC022093FB021092D9
:1021E000FE021092FD0226E331E03093F6022093C6
:1021F000F502109207031092060310920903109241
:10220000080380930A0380930B0381EC80930403FB
:1022100080EC809305030E948905FC012181809157
:10222000F90290E0820F911D089724F081E08093DD
:102230000C0338C0A281B381109729F485EF92E096
:10224000938382830EC018968D919C911997009765
:1022500011F0DC01F8CF85EF92E019969C938E93F4
:10226000189780818093F70281818093F802908192
:102270008091FA02890F808380E09091F90289179A
:10228000A8F6A091FB02B091FC02A80FB11D9C9191
:10229000A181B0E0AF5FBE4F9C9391819F5F91831E
:1022A0008F5FEBCF85EF92E0089560E089E00E94B8
:1022B000970760E08AE00E94970760E088E00E944C
:1022C000970760E08BE00C949707EF92FF921F93C3
:1022D000CF93DF93C82F162F61E00E94CB07111117
:1022E00002C060E003C01F3F49F461E08C2FDF9122
:1022F000CF911F91FF90EF900C949707C93071F028
:10230000CA30C1F480918000806280938000E090A8
:102310008600F0908700CAE8D0E00EC0809180006F
:10232000806880938000E0908600F0908700C8E885
:10233000D0E002C0C0E0D0E09701A12FB0E00E9441
:1023400017242FEF30E040E050E00E94F52339835E
:102350002883DF91CF911F91FF90EF900895DC01CA
:10236000ED91FD918081ED91FD919081ED91FD9137
:102370006C9163708E2309F064609F2309F068609C
:10238000ECECF1E1E60FF11D659565956D936D91AE
:102390007D918D919D91099423C01AC012C016C0E1
:1023A00010C01EC009C014C013C006C019C009C0A7
:1023B0000DC007C00DC014C06250704080409040F6
:1023C0000BC0615070408040904006C06E5F01C0FD
:1023D0006F5F7F4F8F4F9F4F9E938E937E936E9331
:1023E000089580916603909167030C94AF118091DA
:1023F0006403909165030C94AF11809162039091F6
:1024000063030C94AF1180916003909161030C946D
:10241000AF1196E0899FD0011124A450BC4F909633
:102420007C936E935F9791E091969C939197909196
:102430006804E0916904F0916A04992339F03097B7
:1024400051F0811108C08091180404C0309719F030
:102450005C968C9109940895CF92DF92EF92FF924F
:102460000F931F93CF93DF936C017A018B01C0E030
:10247000D0E0CE15DF0589F0D8016D918D01D60130
:10248000ED91FC910190F081E02DC6010995892B19
:1024900011F47E0102C02196ECCFC701DF91CF91EC
:1024A0001F910F91FF90EF90DF90CF900895CF9301
:1024B000DF931F92CDB7DEB76983DC01ED91FC910C
:1024C0000280F381E02D41E050E0BE016F5F7F4F5D
:1024D00009950F90DF91CF91089583E08093E900F3
:1024E0008091F200882319F08AE38093E800089530
:1024F000FC018485958597FD0BC09FB7F89482E019
:102500008093E9008091F2009FBF90E001960895CA
:102510009FB7F89482E08093E9008091F2009FBF1A
:1025200090E00895089580E090E00895CF93DF93C0
:10253000EC0180913101882331F083E00E94C404D2
:102540001816190634F081E090E09B838A8380E0BE
:1025500090E0DF91CF91089583E00E94B30490E072
:102560000895CF93DF931F92CDB7DEB7FC0184852A
:10257000958597FD05C02FEF3FEF358724870FC066
:1025800041E050E0BE016F5F7F4F82E00E945A053C
:10259000019719F4898190E002C08FEF9FEF0F90AF
:1025A000DF91CF9108950F931F93CF93DF931F92E5
:1025B000CDB7DEB78C01FC018485958597FF12C0ED
:1025C00041E050E0BE016F5F7F4F82E00E945A05FC
:1025D000019719F4298130E002C02FEF3FEFF80195
:1025E00035872487F801848595850F90DF91CF91F9
:1025F0001F910F9108950F931F93CF93DF93C82FCF
:10260000D62F86E0C89FF0011124E450FC4F11A2A0
:10261000878D90A181309105F1F01CF4892B49F050
:1026200043C082309105A9F10397F1F560E070E0B5
:1026300034C06623C9F161E070E08C2F0E9409125A
:102640000E945B0860935404709355048093560471
:102650009093570429C00E945B0800915404109184
:1026600055042091560430915704AB01BC01401B26
:10267000510B620B730B8091660490916704A0E08C
:10268000B0E084179507A607B70718F462E070E07A
:1026900004C0D11109C063E070E08C2FDF91CF91AD
:1026A0001F910F910C940912DF91CF911F910F91FF
:1026B00008958091FB03823030F4F89480EF93E02A
:1026C0000E94AF1101C0F8946091F7037091F80374
:1026D0008091F9039091FA03789408954F925F9254
:1026E0006F927F928F929F92AF92BF92CF92DF9222
:1026F000EF92FF92CF93DF9300D000D0CDB7DEB73B
:102700006B017C0129833A834B835C8320E030E0BA
:10271000A9010E94F22520E030E040E053E41816C1
:102720001CF4C701B60103C0C701B60190580E944E
:10273000F7252B013C0169817A818B819C819095E1
:102740008095709561957F4F8F4F9F4F0E944225D6
:102750004B015C019B01AC01C301B2010E949324B7
:1027600087FF03C0C501B40145C020E030E0A901E6
:10277000C701B6010E94F22520E030E040E053E4BA
:1027800018161CF4C701B60103C0C701B601905862
:102790000E94F7254B015C0169817A818B819C81C4
:1027A0000E9442252B013C019B01AC01C501B401F3
:1027B0000E94F22518161CF4C301B2011BC020E0D0
:1027C00030E0A901C701B6010E94F22520E030E007
:1027D00040E053E418164CF4C701B6010E94F725F7
:1027E0000E940A254B015C0112C0C701B601905836
:1027F0000E94F7250E940A254B015C0120E030E091
:10280000A901C701B6010E94F225181644F46627F3
:102810007727CB01681979098A099B090FC020E045
:1028200030E0A901C701B6010E94932487FF03C0CD
:10283000C501B40103C060E070E0CB010F900F90C0
:102840000F900F90DF91CF91FF90EF90DF90CF909E
:10285000BF90AF909F908F907F906F905F904F90C0
:1028600008958F929F92AF92BF92CF92DF92EF9294
:10287000FF926B017C0149015A0120E030E0A9017F
:102880000E94F225181694F020E030E0A901C7015B
:10289000B6010E94932487FF32C020E030E0A901F6
:1028A000C701B6010E9427246B017C01C501B40158
:1028B0000E9442259B01AC01C701B6010E94F72589
:1028C0000E940A25653F21E072078105910524F0E9
:1028D00064EF71E080E090E06C302EEF72072FEF34
:1028E0008207920724F46CE07EEF8FEF9FEF9095C4
:1028F0008095709561957F4F8F4F9F4F03C060E02B
:1029000070E0CB01FF90EF90DF90CF90BF90AF9041
:102910009F908F900895CF92DF92EF92FF920E9446
:1029200036086B017C010E943608DC01CB018C1952
:102930009D09AE09BF09883E9340A105B10598F3F2
:10294000FF90EF90DF90CF900895CF93DF93CDB7B6
:10295000DEB76C970FB6F894DEBF0FBECDBF78948C
:1029600084B5826084BD84B5816084BD85B5826094
:1029700085BD85B5816085BD80916E008160809345
:102980006E001092810080918100826080938100AE
:1029900080918100816080938100809180008160BE
:1029A000809380008091910082608093910080915B
:1029B000910081608093910080919000816080936C
:1029C00090008091C10084608093C1008091C1001B
:1029D00082608093C1008091C10081608093C100BA
:1029E0008091C30081608093C3008091C0008260A9
:1029F0008093C0008091C20081608093C20080916A
:102A00007A00846080937A0080917A00826080935B
:102A10007A0080917A00816080937A0080917A00B8
:102A2000806880937A0010925C0110925B01109292
:102A30005A018091D70081608093D70080EA80930B
:102A4000D80089B5806189BD89B5826089BD09B426
:102A500000FEFDCF0E948B148091D8008F7C806196
:102A60008093D8008091E000807F8093E000809187
:102A7000E1008E7E8093E1008DE08093E200559A24
:102A8000209AEEEFFFE7859194918B3F9C4D19F4CE
:102A900081E08093A00280914A02877E80934A025F
:102AA00080E090E00E946F0B182F81E090E00E9480
:102AB0006F0B212F30E0322F2227280F311D30934A
:102AC00049022093480210924C0282E090E00E945A
:102AD0006F0B182F83E090E00E946F0B212F30E0E6
:102AE000322F2227280F311D30934E0220934D02A2
:102AF00084E090E00E946F0B182F85E090E00E9428
:102B00006F0B212F30E0322F2227280F311D3093F9
:102B1000500220934F0286E090E00E946F0B182F26
:102B200087E090E00E946F0B212F30E0322F2227A8
:102B3000280F311D309352022093510288E090E01B
:102B40000E946F0B182F89E090E00E946F0B212FDD
:102B500030E0322F2227280F311D3093540220936A
:102B600053028AE090E00E946F0B182F8BE090E0F8
:102B70000E946F0B212F30E0322F2227280F311DAA
:102B800030935602209355028CE090E00E946F0B28
:102B9000182F8DE090E00E946F0B212F30E0322F34
:102BA0002227280F311D30935802209357028EE0C0
:102BB00090E00E946F0B182F8FE090E00E946F0B47
:102BC000212F30E0322F2227280F311D30935A0257
:102BD0002093590280E190E00E946F0B182F81E151
:102BE00090E00E946F0B212F30E0322F2227280F18
:102BF000311D30935C0220935B0282E190E00E94E1
:102C00006F0B182F83E190E00E946F0B212F30E0B3
:102C1000322F2227280F311D309366022093650240
:102C200084E190E00E946F0B182F85E190E00E94F4
:102C30006F0B212F30E0322F2227280F311D3093C8
:102C400068022093670286E190E00E946F0B182FC4
:102C500087E190E00E946F0B212F30E0322F222776
:102C6000280F311D30936A02209369028AE190E0B7
:102C70000E946F0B182F8BE190E00E946F0B212FA9
:102C800030E0322F2227280F311D30936C02209321
:102C90006B028CE190E00E946F0B182F8DE190E0A9
:102CA0000E946F0B212F30E0322F2227280F311D79
:102CB00030936E0220936D028EE190E00E946F0BC4
:102CC000182F8FE190E00E946F0B212F30E0322F00
:102CD0002227A901480F511DCA0150936202409357
:102CE0006102892B31F48FEF93E09093620280931D
:102CF000610280E290E00E946F0B182F81E290E069
:102D00000E946F0B212F30E0322F2227280F311D18
:102D1000309364022093630282E290E00E946F0B82
:102D2000182F83E290E00E946F0B212F30E0322FAA
:102D30002227D901A80FB11DB0935E02A0935D02B6
:102D4000AB2B31F48FEF93E090935E0280935D02A2
:102D500084E290E00E946F0B182F85E290E00E94C1
:102D60006F0B212F30E0322F2227280F311D309397
:102D7000600220935F0281E1E8E1F3E0DF011D9250
:102D80008A95E9F78FEF8093280361E089E00E943C
:102D9000CB0761E08AE00E94CB0761E088E00E94F7
:102DA000CB0761E08BE00E94CB070E945511809118
:102DB00080008C7F8093800080918100877E80617D
:102DC0008093810080918100887F81608093810061
:102DD00084EF91E0909387008093860061E08DE01E
:102DE0000E94CB071092CE021092CF021092D00216
:102DF0001092D1021092A4021092A5021092A60283
:102E00001092A7021092CD021092CC02E8EAF2E0F2
:102E10001192119211921192B2E0EC3CFB07C1F7B2
:102E20000E94DF108C0155E1D52E65E1A62ECC2441
:102E3000C3947DE5E72E71E0F72EE7EEBE2EF2E0BB
:102E40009F2ED80113968C918F5F9FB7F89487704F
:102E50008093E9008091F2009FBF882309F4EAC0C3
:102E6000D80113968C914EE050E0BE016F5F7F4F0A
:102E70008F5F0E945A05EA8189818530F1F48B8148
:102E80009C81DE9EF0011124E35AFE4F95838483DA
:102E90000DC0813059F48B81DE9EF0011124E35A7C
:102EA000FE4F818388859985918B808B8FE99FE088
:102EB0000197F1F700C00000C4CF863090F5833051
:102EC000D1F48D819E81DE9EF0011124E35AFE4FE4
:102ED000918780878F8198859783868389859A8556
:102EE000938782878B819C81958784878D859E853A
:102EF00097878687DBCF843060F28C819D81DE9E50
:102F0000F0011124E35AFE4F958384838E819F81C3
:102F1000958784878B81848B88859985938B828B19
:102F2000C5CF8B3071F59092A1028091A30284608D
:102F30008093A3028091A30280618093A3021092E8
:102F4000A202E230A9F038F4E13009F0AFCF80916D
:102F5000A3028E7F10C0E33089F0E43009F0A6CFE1
:102F6000C0920001F7012B2D11922A95E9F79ECF0F
:102F70008091A30284608093A30298CF1092A20252
:102F800095CF8534D9F4EF3F41F4C0920001D701C9
:102F9000EB2D1D92EA95E9F789CFEB3008F086CF4B
:102FA000DE9ED0011124A35ABE4F1C9280910001D5
:102FB000E81708F07BCFE093000178CF8A3009F062
:102FC00075CFEF3F09F4EFE78B81813039F4EB30B7
:102FD00008F06CCFDE9EF001112418C08230E1F4BD
:102FE00081E090E0D89ED001D99EB00D1124A35A63
:102FF000BE4F2C912D7F2C9301968B30910591F72C
:10300000EB3008F053CFAE9EF0011124E35AFE4F8F
:103010008081826080834ACF833009F047CFEB30D4
:1030200008F044CFDE9EF0011124E35AFE4F808168
:103030008D7FF0CFA0914802B091490220914402C7
:103040003091450240914602509147020E94ED2383
:1030500028E6822E99249394A12CB12CA5019401E9
:103060000E94C32369017A012093D6023093D702CC
:103070004093D8025093D9020E9459139B01AC018E
:10308000AFEFBFEF0E94E2232B013C01A091480269
:10309000B09149022091440230914502409146028C
:1030A000509147020E94ED23A50194010E94C32381
:1030B000C301B2010E94C3232115B0E83B074105BB
:1030C000510524F02FEF3FE740E050E02115E0E804
:1030D0003E07EFEF4E075E0724F420E030E84FEFA5
:1030E0005FEF2093D2023093D3024093D4025093E7
:1030F000D50280914C02882351F00E94591370939D
:103100001D0360931C03C12CD12C7601CCC63093D7
:103110001D0320931C030E9459138090CE029090AF
:10312000CF02A090D002B090D1026093CE027093F3
:10313000CF028093D0029093D1022091CD0222231E
:1031400009F449C01091CC02B4E01B9FF001112496
:10315000E855FD4FDC01CB0188199909AA09BB0983
:1031600080839183A283B383012F49E0742E812C45
:10317000912C540124E0029FF0011124E855FD4FE9
:1031800060817181828193810E9442259B01AC0103
:10319000C501B4010E9427244B015C01002311F0FA
:1031A000015001C008E07A947110E4CF20E030E0D3
:1031B00040E151E4C501B4010E9498241F5F193019
:1031C00018F41093CC0202C01092CC02698B7A8B57
:1031D0008B8B9C8B0FC081E08093CD021092A40258
:1031E0001092A5021092A6021092A702198A1A8ABA
:1031F0001B8A1C8A0E9459132B013C0110925F0309
:1032000010922E0310922D03C601D7FC01969595BE
:103210008795092E000CAA0BBB0B80935B03909340
:103220005C03A0935D03B0935E0310924B03109276
:103230004C0310924D0310924E0301E010E0188BE6
:103240000F8734E1232E312CC0905B03D0905C03B8
:10325000E0905D03F0905E03A30192012C0D3D1DF3
:103260004E1D5F1DAFEFBFEF0E94E223A701960145
:10327000220F331F441F551F0E94C323DA01C901C7
:103280009058A109B1098F3F1FE79107A105B1052A
:103290004CF480933B0390933C03A0933D03B09385
:1032A0003E030CC02FEF3FE740E050E020933B038C
:1032B00030933C0340933D0350933E0380913B0386
:1032C00090913C03A0913D03B0913E038130904822
:1032D000AF4FBF4F64F480E090E8AFEFBFEF809353
:1032E0003B0390933C03A0933D03B0933E0305E161
:1032F000EF84F8880E9DF0010F9DF00D1124E35A24
:10330000FE4F808181FF00C411E010935F03848130
:103310009581B1010E9408277093380360933703A9
:103320006289738980E090E00E9440259B01AC0196
:1033300060E070E088EC92E40E949824609353036C
:1033400070935403809355039093560320E030E02C
:1033500048EC52E40E94F7256B017C0120E030E04C
:10336000A9010E94F22520E030E040E05FE387FD04
:1033700005C0C701B6010E94272404C0C701B601D9
:103380000E9426240E940A250E94422520E030E067
:1033900048EC52E40E94982460934F0370935003CA
:1033A00080935103909352030E945B0820E137E21F
:1033B00040E050E00E94F5230E9440256B017C0113
:1033C00060935703709358038093590390935A0363
:1033D00025E10F851889209FF001219FF00D112410
:1033E000E35AFE4FE1818E2F90E0FC013197E830E7
:1033F000F10508F089C3EA5AFF4F0C941C2780910D
:1034000037039091380397FF08C020917102821B07
:1034100091099093380380933703809137039091FB
:1034200038031816190644F420917102820F911D79
:103430009093380380933703C0907402D090750244
:10344000E0907602F090770220E030E0A901C70119
:10345000B6010E94F2250091370310913803609164
:103460002D0370912E031816B4F5072E000C880B4F
:10347000990B0E9442254B015C01B801110F880B8A
:10348000990B653F31E073078105910524F064EFE6
:1034900071E080E090E06C304EEF74074FEF8407EE
:1034A000940724F46CE07EEF8FEF9FEF0E9442259B
:1034B00020918E0230918F024091900250919102A2
:1034C0000E94F725A70196010E94F7259B01AC01F8
:1034D000C501B4017FC1CB01770FAA0BBB0B012E35
:1034E000000C220B330B053F51E015072105310578
:1034F00024F004EF11E020E030E00C30EEEF1E0786
:10350000EFEF2E073E0724F40CE01EEF2FEF3FEF06
:10351000801B910BA20BB30B43C200913703109198
:10352000380360912F0370913003809131039091A3
:1035300032039B01AC010E94272420914F0330915C
:10354000500340915103509152030E94F725A70167
:1035500096010E94F7250E9464269B01AC01B801E8
:10356000012E000C880B990B298F3A8F4B8F5C8FA3
:103570000E944225298D3A8D4B8D5C8D0E94F72546
:1035800020E030E0A9010E9427240E940A256B0157
:103590007C0145E12F853889429FF001439FF00D62
:1035A0001124E35AFE4F84859585B1010E940827B6
:1035B000CB01801B910B092E000CAA0BBB0BC8166C
:1035C000D906EA06FB064CF484859585B1010E9474
:1035D00008276B01C01AD10A19C084859585B101ED
:1035E0000E940827CB01800F911F092E000CAA0B07
:1035F000BB0B8C159D05AE05BF0564F484859585D0
:10360000B1010E9408276B01C00ED11E0D2C000CC9
:10361000EE08FF08C0924103D0924203E0924303B8
:10362000F092440380907C0290907D02A0907E02F4
:10363000B0907F0220E030E0A901C501B4010E94F2
:10364000F2251816E4F4C701B6010E944225209124
:1036500096023091970240919802509199020E94EF
:10366000F725A50194010E94F7250E940A25609381
:10367000410370934203809343039093440320914A
:1036800041033091420380912D0390912E03820FCC
:10369000931F86C125E1EF84F8882E9D80012F9D20
:1036A000100D1124035A1E4FD80118966D917C916C
:1036B00019971C968D919C911D97092E000CAA0BB1
:1036C000BB0BC0903B03D0903C03E0903D03F090D7
:1036D0003E03A7019601281B390B4A0B5B0BDB014C
:1036E0000E94E2230E9442252CEA35EC47EA56E389
:1036F0000E94F7250E940A256B017C01F801828552
:1037000093856CEE7FEF0E940827CB01770FAA0B01
:10371000BB0BC816D906EA06FB062CF482859385F6
:103720006CEE7FEF12C082859385B1010E9408275D
:10373000CB01770FAA0BBB0B8C159D05AE05BF0502
:1037400054F4F80182859385B1010E9408276B012A
:10375000770FEE08FF08C0923303D0923403E09253
:103760003503F09236038090780290907902A09011
:103770007A02B0907B0220E030E0A901C501B401DB
:103780000E94F22560912D0370912E0318165CF5AE
:10379000072E000C880B990B0E9442256D8B7E8BA7
:1037A0008F8B988FC701B6010E944225209192020B
:1037B0003091930240919402509195020E94F72516
:1037C000A50194010E94F7259B01AC016D897E89BA
:1037D0008F89988D0E9426240E940A2570932E03BB
:1037E00060932D0391C16C197D09F8CF05E1EF8439
:1037F000F8880E9DF0010F9DF00D1124E35AFE4F45
:1038000080859185B1010E94F42680E090E00E94BD
:103810004025209182023091830240918402509190
:1038200085020E94F7250E940A259B01AC01698947
:103830007A898B899C890E94311427C005E1EF8425
:10384000F8880E9DF0010F9DF00D1124E35AFE4FF4
:1038500080859185B1010E94F42680E090E00E946D
:103860004025209186023091870240918802509134
:1038700089020E94F7250E940A259B01AC016989F3
:103880007A898B899C890E946E1300912D03109177
:103890002E03012E000C220B330BDC01CB01800F19
:1038A000911FA21FB31F7CC080904B0390904C03CC
:1038B000A0904D03B0904E03A501940169897A89C7
:1038C0008B899C890E9426246B017C0160934703AD
:1038D000709348038093490390934A0329893A8956
:1038E0004B895C89C501B4010E94272460934B0376
:1038F00070934C0380934D0390934E0345E12F85C5
:103900003889429F8001439F100D1124035A1E4F96
:10391000D80118968D919C91199760E971E00E94E9
:10392000F42680E090E00E9442259B01AC01C70193
:10393000B6010E94F72520918A0230918B024091B6
:103940008C0250918D020E94F7250E940A259B014E
:10395000F801828593856CEE7FEF0E940827261779
:1039600037072CF4828593856CEE7FEF0CC082853F
:103970009385B1010E940827621773073CF4F80190
:1039800082859385B1010E9408279B0130934603ED
:103990002093450380912D0390912E03821B930B5E
:1039A00090932E0380932D03AFC0009137031091A5
:1039B00038032BED3FE049EC50E460914F037091E8
:1039C000500380915103909152030E94F725A70163
:1039D00096010E94F7250E9464269B01AC01B80164
:1039E000012E000C880B990B298F3A8F4B8F5C8F1F
:1039F0000E944225298D3A8D4B8D5C8D0E94F725C2
:103A00000E940A25653FF1E07F078105910524F0BA
:103A100064EF71E080E090E06C302EEF72072FEFE2
:103A20008207920724F46CE07EEF8FEF9FEF97FD03
:103A300005C021E0672B19F420E001C02FEF20031F
:103A40005001219FB00C112425E1EF84F8882E9DB0
:103A5000F0012F9DF00D1124E35AFE4F84859585CA
:103A6000B1010E940827601B710B84859585A616FD
:103A7000B7063CF4B1010E9408275B01A01AB10A05
:103A800010C0B1010E940827600F711F6A157B05E5
:103A900044F484859585B1010E9408275B01A00E3E
:103AA000B11EB0924003A0923F0360912D0370912C
:103AB0002E03072E000C880B990B0E9442256B01E8
:103AC0007C01B501BB0C880B990B0E94422520910B
:103AD0009A0230919B0240919C0250919D020E945B
:103AE000F7259B01AC01C701B6010E94272474CEC3
:103AF00005E1EF84F8880E9DF0010F9DF00D112473
:103B0000E35AFE4F828993890F8518890F5F1F4FF3
:103B1000188B0F870B30110509F096CB80919F020F
:103B2000882309F463C090915F0391115FC08430D2
:103B3000A1F18530F1F1833009F058C0A0919E02C7
:103B400040913B0350913C0360913D0370913E03D3
:103B50007A018B0122273327A9012E193F09400B37
:103B6000510BB0E00E94E22320ED37E040E050E04E
:103B70000E94C323209333033093340340933503CF
:103B80005093360380912D0390912E03280F391FF7
:103B900030932E0320932D0329C020919E0230E004
:103BA00040E050E069897A898B899C890E943114B0
:103BB0000BC020919E0230E040E050E069897A8994
:103BC0008B899C890E946E1300912D0310912E0306
:103BD000012E000C220B330BDC01CB01800F911F57
:103BE000A21FB31F90932E0380932D0380905B033D
:103BF00090905C03A0905D03B0905E03CC24DD2424
:103C00007601C818D908EA08FB084C145D046E0454
:103C10007F0434F084149504A604B7040CF096C015
:103C200020E030E0A90169897A898B899C890E940A
:103C3000F22587FD03C077FE0EC01BC420E030E0F4
:103C4000A90169897A898B899C890E94932487FFBD
:103C50001EC077FE1CC024EF31E040E050E06989CF
:103C60007A898B899C890E946E1300912D03109193
:103C70002E03012E000C220B330BDC01CB01800F35
:103C8000911FA21FB31F90932E0380932D0302E375
:103C9000800E911CA11CB11C80925B0390925C036E
:103CA000A0925D03B0925E0312E3C11AD108E1084D
:103CB000F1084C145D046E047F0434F08414950400
:103CC000A604B7040CF042C077FC03C0A501940120
:103CD00002C0A701960124193509460957094090E9
:103CE0002D0350902E03052C000C66087708A09138
:103CF0008002B09181020E94E2230E9442252AE0C4
:103D000037ED43EA5BE30E94F7250E940A25653FF1
:103D100021E072078105910524F064EF71E080E0F5
:103D200090E06C303EEF73073FEF8307930724F476
:103D30006CE07EEF8FEF9FEFDC01CB01840D951DD2
:103D4000A61DB71D90932E0380932D03C0902D03C5
:103D5000D0902E030D2C000CEE08FF0845EFC41682
:103D600041E0D406E104F10434F014EFC12EDD2467
:103D7000D394E12CF12C5CE0C5165EEFD5065FEF25
:103D8000E506F5063CF4BCE0CB2EBEEFDB2EEE24C0
:103D9000EA94FE2CD0922E03C0922D03809144020F
:103DA00090914502A0914602B0914702181619065B
:103DB0001A061B060CF077C0F7FE3AC0AFEFB0E072
:103DC000A70196010E94E2232CE03EEF4FEF5FEF48
:103DD0000E94C323122F80917002823091F028F448
:103DE000813009F060C061E049C08330B9F08430AF
:103DF00009F059C060E088E00E94970761E08BE01D
:103E00000FC061E088E00E94970760E08BE00E94AD
:103E10009707612F89E00E94651145C061E088E045
:103E20000E949707612F8AE00E94651160E0F2CF3F
:103E3000C114D104E104F104A1F1AFEFB0E0A70196
:103E400096010E94E22324EF31E040E050E00E941E
:103E5000C323122F80917002823091F020F48130C0
:103E600011F560E00BC0833089F08430E1F461E04B
:103E700088E00E94970760E08BE00AC088E0C7CF27
:103E800060E088E00E94970761E0C0CF61E088E0D1
:103E90000E949707612F89E00E94651160E08AE027
:103EA000BACF0E945511F7FE08C0F094E094D09468
:103EB000C094C11CD11CE11CF11C84EFC81681E028
:103EC000D806E104F10411F461E001C060E08DE086
:103ED0000E9497078EEC93E00E947409C0904D02F7
:103EE000D0904E020D2C000CEE08FF082091EB0341
:103EF0003091EC03C901330FAA0BBB0B9C01AD0140
:103F00002C193D094E095F09AEEFBFEF0E94E22375
:103F100020914F02309150028901330F220B330B55
:103F2000A90198012C193D094E095F090E94C3237C
:103F3000DA01C9018F5F9F47A109B1098115E0E846
:103F40009E07A105B10524F08FEF9FE7A0E0B0E048
:103F50008115F0E89F07FFEFAF07BF0724F480E06B
:103F600090E8AFEFBFEF90931F0380931E038CEA9E
:103F700093E00E947409C0905102D09052020D2C1F
:103F8000000CEE08FF086091C9037091CA03CB01D1
:103F9000770FAA0BBB0B8C199D09AE09BF09BC0199
:103FA000CD01AAE0660F771F881F991FAA95D1F748
:103FB00020915302309154028901330F220B330BAD
:103FC000A90198012C193D094E095F090E94C323DC
:103FD000213004E0300714F020E034E037FF02C065
:103FE00020E030E0309325032093240380914B029E
:103FF00080FF40C08AE893E00E947409C090550297
:10400000D09056020D2C000CEE08FF086091A7031B
:104010007091A803CB01770FAA0BBB0B8C199D09DC
:10402000AE09BF09BC01CD01FAE0660F771F881FFA
:10403000991FFA95D1F720915702309158028901C2
:10404000330F220B330BA90198012C193D094E099E
:104050005F090E94C323213014E0310714F020E0EF
:1040600034E037FF02C020E030E03093210320939A
:10407000200304C0109221031092200380914B0270
:1040800081FF40C088E693E00E947409C090590205
:10409000D0905A020D2C000CEE08FF0860918503A9
:1040A00070918603CB01770FAA0BBB0B8C199D096E
:1040B000AE09BF09BC01CD01EAE0660F771F881F7A
:1040C000991FEA95D1F720915B0230915C0289013A
:1040D000330F220B330BA90198012C193D094E090E
:1040E0005F090E94C323213044E0340714F020E02C
:1040F00034E037FF02C020E030E030932303209308
:10410000220304C010922303109222030E945B0832
:10411000009158041091590420915A0430915B0485
:10412000AB01BC01401B510B620B730B809164040B
:1041300090916504A0E0B0E084179507A607B70743
:1041400078F080914A0280FF64C1F8941092F703DE
:104150001092F8031092F9031092FA03789459C15F
:1041600010E080916204181760F4E0915E04F09111
:104170005F04E10FF11D62E080810E94CB071F5FA9
:10418000F0CF912C80916304981608F064C0E92C5C
:10419000F12CE0916004F0916104EE0DFF1D61E0EF
:1041A00080810E94CB07E0916004F0916104EE0DE4
:1041B000FF1D60E080810E94970781E090E0A0E011
:1041C000B0E0092C04C0880F991FAA1FBB1F0A94D6
:1041D000D2F75C016C01C094D094812C8091620470
:1041E000881610F5082D10E080915E0490915F0410
:1041F000FC01E00FF11F80810E946B070C5F1F4FD5
:10420000000F111FF801E450FC4F892B29F4808125
:1042100091818A299B2904C0808191818C219D21D3
:10422000918380838394DACFE0916004F0916104FC
:10423000EE0DFF1D61E080810E9497078091600470
:1042400090916104FC01EE0DFF1D60E080810E94F1
:10425000CB07939497CF08E114E0F8018FEF9FEF1D
:1042600023813481232B21F4108292838183158250
:10427000369654E0E435F50799F7C12C46E0D42E84
:1042800080916204C81608F056C0B12CEC2CF12CB9
:10429000C701880F991FFC01EC5FFB4F7F01209144
:1042A0006304B21608F045C0D7016D917C910B2CC8
:1042B00002C0769567950A94E2F761707727C29EEF
:1042C000900111242B0D311DE0915C04F0915D04EF
:1042D000E20FF31FA081ECEFF3E080E0458D568DF7
:1042E0004217530711F461701AC08F5F36968A30F7
:1042F000A9F7672BE1F0E8E1F4E080E090E040818D
:10430000411110C0D89EF001D99EF00D1124E45047
:10431000FC4FA48F368F258F10A2178E61E00E946C
:10432000FB1205C0019636968A30910541F7B39489
:10433000B6CFC394A5CF80E090E0F12CFC01E4500F
:10434000FC4F21A1222311F0FF24F39406968C3315
:104350009105A1F70E945B0860935804709359047B
:1043600080935A0490935B04FF2009F4EACE809175
:10437000180390911903A0911A03B0911B03F8013F
:1043800025812223B1F1238134812330310534F496
:10439000213031053CF4232BB9F02BC023303105FB
:1043A00099F027C041E050E060E070E0F801008043
:1043B00004C0440F551F661F771F0A94D2F7842B41
:1043C000952BA62BB72B15C041E050E060E070E0C4
:1043D000F801008004C0440F551F661F771F0A9420
:1043E000D2F7409550956095709584239523A62328
:1043F000B7230A5F1F4FF4E004351F0709F0BFCF52
:104400008093180390931903A0931A03B0931B038E
:1044100098CE0E94DF1021E130E048E153E063E0F4
:104420000E94AB1080914A0283FF09C00E94DF10F6
:1044300029E030E049E253E060E80E94AB1080914F
:104440004A0284FF0CC08FE589830E94DF1029E0B7
:1044500030E0AE014F5F5F4F66E80E94AB1080E036
:1044600090E0892B11F40C9410170E9400000C941A
:10447000101720E030E0A90169897A898B899C892D
:104480000E94932487FF03CCE6CB0F931F93CF9317
:10449000DF9310926E0410926D0488EE93E0A0E01A
:1044A000B0E080936F0490937004A0937104B09374
:1044B000720482E491E090936C0480936B048FEF1C
:1044C0009FEF90937804809377048091C1048111C9
:1044D00013C01092BC041092BB0489ED91E090933C
:1044E000BE048093BD0482EE93E09093C004809359
:1044F000BF0481E08093C1040E94DF10FC01A18908
:10450000B289109729F48BEB94E0928B818B0BC0CE
:104510008D919C911197009711F0DC01F9CF8BEBF5
:1045200094E08D939C93238934898091BF0490916A
:10453000C004820F931F948B838B80ED9FE0A9E4CE
:10454000B0E480932F0390933003A0933103B09392
:1045500032031092FE031092020410920104109292
:10456000030484E591E09093FD038093FC0380E0D5
:1045700090E0FC01E450FC4F148E10A2178E11A2A3
:1045800006968C339105A9F786E191E090935F043C
:1045900080935E0482E191E09093610480936004D3
:1045A00084E080936204809363048AE191E09093B5
:1045B0005D0480935C048AE090E0909365048093AE
:1045C000640484EF91E090936704809366041092F2
:1045D0006A041092690410925804109259041092BF
:1045E0005A0410925B041092680462E080E00E941A
:1045F000CB0762E081E00E94CB07E8EEF5E0E491B2
:10460000F0E0EE0FFF1FE652FA4FA591B491B09380
:10461000F103A093F003EBEBF5E084918093F403B6
:10462000E9EEF5E0E491F0E0EE0FFF1FE652FA4FFD
:10463000C591D491D093F303C093F203ECEBF5E072
:10464000E491E093F5031092F7031092F8031092AF
:10465000F9031092FA03EBE3FFE13197F1F7EC91E4
:10466000E82381E009F480E028819091F50392230A
:1046700009F0826020EF33E08093F6033093650306
:104680002093640387EF91E190930D0180930C01D7
:10469000809169008F7C806180936900EA9A81E053
:1046A0008093FB03309367032093660381EF91E1CE
:1046B00090930F0180930E01809169008F73806445
:1046C00080936900EB9A82E08093FB030AE017ED88
:1046D00023E23CE341E062E170E08EEC93E00E9473
:1046E000ED0A0AE017ED23E23CE341E063E170E00C
:1046F0008CEA93E00E94ED0A0AE017ED23E23CE326
:1047000041E064E170E08AE893E00E94ED0A0AE08B
:1047100017ED23E23CE341E065E170E088E693E0D9
:104720000E94ED0A0AE017ED23E23CE341E066E176
:1047300070E08BEE94E00E94ED0A0AE017ED23E2B0
:104740003CE341E067E170E089EC94E00E94ED0A0F
:10475000DF91CF911F910F910895F999FECF92BDEE
:1047600081BDF89A992780B50895262FF999FECF33
:104770001FBA92BD81BD20BD0FB6F894FA9AF99A7E
:104780000FBE01960895052E97FB1EF400940E941B
:10479000DA2357FD07D00E94F52307FC03D04EF41F
:1047A0000C94DA2350954095309521953F4F4F4F0B
:1047B0005F4F089590958095709561957F4F8F4FCD
:1047C0009F4F08950E941724A59F900DB49F900DB0
:1047D000A49F800D911D11240895B7FF0C94E2232E
:1047E0000E94E223821B930B0895A1E21A2EAA1BBA
:1047F000BB1BFD010DC0AA1FBB1FEE1FFF1FA21791
:10480000B307E407F50720F0A21BB30BE40BF50B8D
:10481000661F771F881F991F1A9469F76095709516
:10482000809590959B01AC01BD01CF010895A29F99
:10483000B001B39FC001A39F700D811D1124911D74
:10484000B29F700D811D1124911D08955058BB27F2
:10485000AA270E943E240C94B8250E94AA2538F06D
:104860000E94B12520F039F49F3F19F426F40C94EE
:10487000A7250EF4E095E7FB0C94A125E92F0E94F3
:10488000C92558F3BA17620773078407950720F004
:1048900079F4A6F50C94EB250EF4E0950B2EBA2FC7
:1048A000A02D0B01B90190010C01CA01A001112436
:1048B000FF27591B99F0593F50F4503E68F11A16E2
:1048C000F040A22F232F342F4427585FF3CF469573
:1048D00037952795A795F0405395C9F77EF41F1695
:1048E000BA0B620B730B840BBAF09150A1F0FF0F5F
:1048F000BB1F661F771F881FC2F70EC0BA0F621F4B
:10490000731F841F48F4879577956795B795F7953A
:104910009E3F08F0B0CF9395880F08F09927EE0FCF
:104920009795879508950E947D2508F481E0089564
:104930000E94AC240C94B8250E94B12558F00E9426
:10494000AA2540F029F45F3F29F00C94A1255111CC
:104950000C94EC250C94A7250E94C92568F3992393
:10496000B1F3552391F3951B550BBB27AA2762176B
:104970007307840738F09F5F5F4F220F331F441F78
:10498000AA1FA9F335D00E2E3AF0E0E832D09150AC
:104990005040E695001CCAF72BD0FE2F29D0660F99
:1049A000771F881FBB1F261737074807AB07B0E8DC
:1049B00009F0BB0B802DBF01FF2793585F4F3AF0E2
:1049C0009E3F510578F00C94A1250C94EC255F3F97
:1049D000E4F3983ED4F3869577956795B795F79568
:1049E0009F5FC9F7880F911D9695879597F9089550
:1049F000E1E0660F771F881FBB1F621773078407EC
:104A0000BA0720F0621B730B840BBA0BEE1F88F7FA
:104A1000E09508950E9411256894B1110C94EC253D
:104A200008950E94D12588F09F5798F0B92F9927B3
:104A3000B751B0F0E1F0660F771F881F991F1AF089
:104A4000BA95C9F714C0B13091F00E94EB25B1E0DE
:104A500008950C94EB25672F782F8827B85F39F0DD
:104A6000B93FCCF3869577956795B395D9F73EF422
:104A700090958095709561957F4F8F4F9F4F0895CA
:104A8000E89409C097FB3EF49095809570956195E8
:104A90007F4F8F4F9F4F9923A9F0F92F96E9BB279E
:104AA0009395F695879577956795B795F111F8CF1A
:104AB000FAF4BB0F11F460FF1BC06F5F7F4F8F4F85
:104AC0009F4F16C0882311F096E911C0772321F07B
:104AD0009EE8872F762F05C0662371F096E8862F13
:104AE00070E060E02AF09A95660F771F881FDAF76A
:104AF000880F9695879597F90895990F0008550F97
:104B0000AA0BE0E8FEEF16161706E807F907C0F053
:104B100012161306E407F50798F0621B730B840B5B
:104B2000950B39F40A2661F0232B242B252B21F435
:104B300008950A2609F4A140A6958FEF811D811DD5
:104B4000089597F99F6780E870E060E008959FEF0F
:104B500080EC089500240A94161617061806090614
:104B6000089500240A9412161306140605060895E3
:104B7000092E0394000C11F4882352F0BB0F40F46B
:104B8000BF2B11F460FF04C06F5F7F4F8F4F9F4FAB
:104B9000089557FD9058440F551F59F05F3F71F02D
:104BA0004795880F97FB991F61F09F3F79F0879594
:104BB0000895121613061406551FF2CF4695F1DF1D
:104BC00008C0161617061806991FF1CF86957105AD
:104BD000610508940895E894BB2766277727CB01E1
:104BE00097F908950E947D2508F48FEF08950E949B
:104BF0000A260C94B8250E94AA2538F00E94B125F7
:104C000020F0952311F00C94A1250C94A7251124D4
:104C10000C94EC250E94C92570F3959FC1F3950F64
:104C200050E0551F629FF001729FBB27F00DB11D30
:104C3000639FAA27F00DB11DAA1F649F6627B00DC0
:104C4000A11D661F829F2227B00DA11D621F739FA9
:104C5000B00DA11D621F839FA00D611D221F749FB7
:104C60003327A00D611D231F849F600D211D822FFE
:104C7000762F6A2F11249F5750409AF0F1F0882325
:104C80004AF0EE0FFF1FBB1F661F771F881F915052
:104C90005040A9F79E3F510580F00C94A1250C943B
:104CA000EC255F3FE4F3983ED4F3869577956795BE
:104CB000B795F795E7959F5FC1F7FE2B880F911D7C
:104CC0009695879597F908959F930E946E260F9069
:104CD00007FCEE5F0C9497260C94A7250E94D12523
:104CE000D8F3E894E0E0BB279F57F0F02AED3FE0CF
:104CF00049EC06C0EE0FBB0F661F771F881F28F018
:104D0000B23A62077307840728F0B25A620B730B3A
:104D1000840BE3959A9572F7803830F49A95BB0F1F
:104D2000661F771F881FD2F790480C94AD26EF932B
:104D3000E0FF07C0A2EA2AED3FE049EC5FEB0E94EA
:104D40003E240E94B8250F90039401FC9058E2E5A0
:104D5000F1E00C94B9269F3F31F0915020F48795F3
:104D600077956795B795880F911D9695879597F9D3
:104D700008959F938F937F936F93FF93EF939B017E
:104D8000AC010E94F725EF91FF910E94CD262F9153
:104D90003F914F915F910C94F725DF93CF931F9331
:104DA0000F93FF92EF92DF927B018C01689406C013
:104DB000DA2EEF010E940A26FE01E894A5912591C2
:104DC000359145915591A6F3EF010E943E24FE01D5
:104DD0009701A801DA9469F7DF90EF90FF900F91A7
:104DE0001F91CF91DF910895AA1BBB1B51E107C012
:104DF000AA1FBB1FA617B70710F0A61BB70B881F6B
:104E0000991F5A95A9F780959095BC01CD010895F9
:104E100097FB072E16F4009407D077FD09D00E9467
:104E2000F42607FC05D03EF4909581959F4F089598
:104E3000709561957F4F0895EE0FFF1F0590F491D7
:104E4000E02D099481E090E0F8940C942727F894E1
:024E5000FFCF92
:104E52000100C18081000000E403E403E403E403F1
:104E6200E4030506070C0E0F100408090A0B0C0DCB
:104E72000E0F101112131415161700E10000000096
:104E8200000000000000260CD40B940B710B0000F4
:104E9200000057129612AC126D127812B112D31290
:0A4EA200000000000708C70794078E
:00000001FF
